{
  "_format": "hh-sol-artifact-1",
  "contractName": "PoolFactory",
  "sourceName": "contracts/PoolFactory.sol",
  "abi": [
    {
      "inputs": [],
      "stateMutability": "nonpayable",
      "type": "constructor"
    },
    {
      "inputs": [],
      "name": "getPools",
      "outputs": [
        {
          "internalType": "contract Pool[]",
          "name": "",
          "type": "address[]"
        }
      ],
      "stateMutability": "view",
      "type": "function"
    },
    {
      "inputs": [
        {
          "internalType": "address",
          "name": "_owner",
          "type": "address"
        }
      ],
      "name": "newPool",
      "outputs": [
        {
          "internalType": "address",
          "name": "",
          "type": "address"
        }
      ],
      "stateMutability": "nonpayable",
      "type": "function"
    },
    {
      "inputs": [],
      "name": "owner",
      "outputs": [
        {
          "internalType": "address",
          "name": "",
          "type": "address"
        }
      ],
      "stateMutability": "view",
      "type": "function"
    }
  ],
  "bytecode": "0x608060405234801561001057600080fd5b5033600160006101000a81548173ffffffffffffffffffffffffffffffffffffffff021916908373ffffffffffffffffffffffffffffffffffffffff160217905550612e8f806100616000396000f3fe608060405234801561001057600080fd5b50600436106100415760003560e01c80633c5c7fb314610046578063673a2a1f146100765780638da5cb5b14610094575b600080fd5b610060600480360381019061005b9190610271565b6100b2565b60405161006d919061032e565b60405180910390f35b61007e61019b565b60405161008b9190610349565b60405180910390f35b61009c610229565b6040516100a9919061032e565b60405180910390f35b600080826040516100c29061024f565b6100cc919061032e565b604051809103906000f0801580156100e8573d6000803e3d6000fd5b5090506000819080600181540180825580915050600190039060005260206000200160009091909190916101000a81548173ffffffffffffffffffffffffffffffffffffffff021916908373ffffffffffffffffffffffffffffffffffffffff1602179055506000806001600080549050038154811061016457fe5b9060005260206000200160009054906101000a900473ffffffffffffffffffffffffffffffffffffffff1690508092505050919050565b6060600080548060200260200160405190810160405280929190818152602001828054801561021f57602002820191906000526020600020905b8160009054906101000a900473ffffffffffffffffffffffffffffffffffffffff1673ffffffffffffffffffffffffffffffffffffffff16815260200190600101908083116101d5575b5050505050905090565b600160009054906101000a900473ffffffffffffffffffffffffffffffffffffffff1681565b612a488061041283390190565b60008135905061026b816103fa565b92915050565b60006020828403121561028357600080fd5b60006102918482850161025c565b91505092915050565b60006102a6838361031f565b60208301905092915050565b6102bb816103a4565b82525050565b60006102cc8261037b565b6102d68185610393565b93506102e18361036b565b8060005b838110156103125781516102f9888261029a565b975061030483610386565b9250506001810190506102e5565b5085935050505092915050565b610328816103d6565b82525050565b600060208201905061034360008301846102b2565b92915050565b6000602082019050818103600083015261036381846102c1565b905092915050565b6000819050602082019050919050565b600081519050919050565b6000602082019050919050565b600082825260208201905092915050565b60006103af826103b6565b9050919050565b600073ffffffffffffffffffffffffffffffffffffffff82169050919050565b60006103e1826103e8565b9050919050565b60006103f3826103b6565b9050919050565b610403816103a4565b811461040e57600080fd5b5056fe608060405273ff795577d9ac8bd7d90ee22b6c1703490b6512fd600360006101000a81548173ffffffffffffffffffffffffffffffffffffffff021916908373ffffffffffffffffffffffffffffffffffffffff16021790555073dcf0af9e59c002fa3aa091a46196b37530fd48a8600460006101000a81548173ffffffffffffffffffffffffffffffffffffffff021916908373ffffffffffffffffffffffffffffffffffffffff16021790555073dcfab8057d08634279f8201b55d311c2a67897d2600560006101000a81548173ffffffffffffffffffffffffffffffffffffffff021916908373ffffffffffffffffffffffffffffffffffffffff16021790555073f9155b335faa6c184ab2f2c4d5939d86268f3668600660006101000a81548173ffffffffffffffffffffffffffffffffffffffff021916908373ffffffffffffffffffffffffffffffffffffffff160217905550737a250d5630b4cf539739df2c5dacb4c659f2488d600760006101000a81548173ffffffffffffffffffffffffffffffffffffffff021916908373ffffffffffffffffffffffffffffffffffffffff16021790555073e0fba4fc209b4948668006b2be61711b7f465bae600860006101000a81548173ffffffffffffffffffffffffffffffffffffffff021916908373ffffffffffffffffffffffffffffffffffffffff16021790555034801561020e57600080fd5b50604051612a48380380612a488339818101604052602081101561023157600080fd5b8101908080519060200190929190505050806000806101000a81548173ffffffffffffffffffffffffffffffffffffffff021916908373ffffffffffffffffffffffffffffffffffffffff160217905550600760009054906101000a900473ffffffffffffffffffffffffffffffffffffffff16600160006101000a81548173ffffffffffffffffffffffffffffffffffffffff021916908373ffffffffffffffffffffffffffffffffffffffff160217905550600860009054906101000a900473ffffffffffffffffffffffffffffffffffffffff16600260006101000a81548173ffffffffffffffffffffffffffffffffffffffff021916908373ffffffffffffffffffffffffffffffffffffffff160217905550506126f0806103586000396000f3fe6080604052600436106100c25760003560e01c806370a082311161007f578063b4dcfc7711610059578063b4dcfc7714610393578063d0e30db0146103d4578063d8264920146103de578063e0bab4c41461041f576100c2565b806370a08231146102ac57806389a30271146103115780638da5cb5b14610352576100c2565b806312b58349146100c757806312d4b07c146100f25780631a38a4fb1461016a5780632e1a7d4d146101ab578063559fda33146101e6578063594e135414610227575b600080fd5b3480156100d357600080fd5b506100dc610460565b6040518082815260200191505060405180910390f35b6101686004803603608081101561010857600080fd5b81019080803573ffffffffffffffffffffffffffffffffffffffff169060200190929190803573ffffffffffffffffffffffffffffffffffffffff169060200190929190803590602001909291908035906020019092919050505061046a565b005b34801561017657600080fd5b5061017f610b6a565b604051808273ffffffffffffffffffffffffffffffffffffffff16815260200191505060405180910390f35b3480156101b757600080fd5b506101e4600480360360208110156101ce57600080fd5b8101908080359060200190929190505050610b90565b005b3480156101f257600080fd5b506101fb611679565b604051808273ffffffffffffffffffffffffffffffffffffffff16815260200191505060405180910390f35b34801561023357600080fd5b506102aa6004803603608081101561024a57600080fd5b81019080803573ffffffffffffffffffffffffffffffffffffffff169060200190929190803573ffffffffffffffffffffffffffffffffffffffff169060200190929190803590602001909291908035906020019092919050505061169f565b005b3480156102b857600080fd5b506102fb600480360360208110156102cf57600080fd5b81019080803573ffffffffffffffffffffffffffffffffffffffff169060200190929190505050611e6d565b6040518082815260200191505060405180910390f35b34801561031d57600080fd5b50610326611eb6565b604051808273ffffffffffffffffffffffffffffffffffffffff16815260200191505060405180910390f35b34801561035e57600080fd5b50610367611edc565b604051808273ffffffffffffffffffffffffffffffffffffffff16815260200191505060405180910390f35b34801561039f57600080fd5b506103a8611f00565b604051808273ffffffffffffffffffffffffffffffffffffffff16815260200191505060405180910390f35b6103dc611f26565b005b3480156103ea57600080fd5b506103f361238e565b604051808273ffffffffffffffffffffffffffffffffffffffff16815260200191505060405180910390f35b34801561042b57600080fd5b506104346123b4565b604051808273ffffffffffffffffffffffffffffffffffffffff16815260200191505060405180910390f35b6000600a54905090565b6000808590506104af6040518060400160405280600781526020017f77616c6c65743a00000000000000000000000000000000000000000000000000815250336123da565b6060600267ffffffffffffffff811180156104c957600080fd5b506040519080825280602002602001820160405280156104f85781602001602082028036833780820191505090505b509050600160009054906101000a900473ffffffffffffffffffffffffffffffffffffffff1673ffffffffffffffffffffffffffffffffffffffff1663ad5c46486040518163ffffffff1660e01b815260040160206040518083038186803b15801561056357600080fd5b505afa158015610577573d6000803e3d6000fd5b505050506040513d602081101561058d57600080fd5b8101908080519060200190929190505050816000815181106105ab57fe5b602002602001019073ffffffffffffffffffffffffffffffffffffffff16908173ffffffffffffffffffffffffffffffffffffffff168152505081816001815181106105f357fe5b602002602001019073ffffffffffffffffffffffffffffffffffffffff16908173ffffffffffffffffffffffffffffffffffffffff168152505061070d6040518060400160405280601a81526020017f746f6b656e2062616c616e6365206265666f726520737761703a0000000000008152508373ffffffffffffffffffffffffffffffffffffffff166370a08231896040518263ffffffff1660e01b8152600401808273ffffffffffffffffffffffffffffffffffffffff16815260200191505060206040518083038186803b1580156106cd57600080fd5b505afa1580156106e1573d6000803e3d6000fd5b505050506040513d60208110156106f757600080fd5b81019080805190602001909291905050506124f7565b60008514156108c257600160009054906101000a900473ffffffffffffffffffffffffffffffffffffffff1673ffffffffffffffffffffffffffffffffffffffff1663d06ca61f34836040518363ffffffff1660e01b81526004018083815260200180602001828103825283818151815260200191508051906020019060200280838360005b838110156107ae578082015181840152602081019050610793565b50505050905001935050505060006040518083038186803b1580156107d257600080fd5b505afa1580156107e6573d6000803e3d6000fd5b505050506040513d6000823e3d601f19601f82011682018060405250602081101561081057600080fd5b810190808051604051939291908464010000000082111561083057600080fd5b8382019150602082018581111561084657600080fd5b825186602082028301116401000000008211171561086357600080fd5b8083526020830192505050908051906020019060200280838360005b8381101561089a57808201518184015260208101905061087f565b505050509050016040525050506001815181106108b357fe5b602002602001015192506108c6565b8492505b600160009054906101000a900473ffffffffffffffffffffffffffffffffffffffff1673ffffffffffffffffffffffffffffffffffffffff16637ff36ab53485848a896040518663ffffffff1660e01b815260040180858152602001806020018473ffffffffffffffffffffffffffffffffffffffff168152602001838152602001828103825285818151815260200191508051906020019060200280838360005b83811015610983578082015181840152602081019050610968565b50505050905001955050505050506000604051808303818588803b1580156109aa57600080fd5b505af11580156109be573d6000803e3d6000fd5b50505050506040513d6000823e3d601f19601f8201168201806040525060208110156109e957600080fd5b8101908080516040519392919084640100000000821115610a0957600080fd5b83820191506020820185811115610a1f57600080fd5b8251866020820283011164010000000082111715610a3c57600080fd5b8083526020830192505050908051906020019060200280838360005b83811015610a73578082015181840152602081019050610a58565b5050505090500160405250505050610b616040518060400160405280601981526020017f746f6b656e2062616c616e636520616674657220737761703a000000000000008152508373ffffffffffffffffffffffffffffffffffffffff166370a08231896040518263ffffffff1660e01b8152600401808273ffffffffffffffffffffffffffffffffffffffff16815260200191505060206040518083038186803b158015610b2157600080fd5b505afa158015610b35573d6000803e3d6000fd5b505050506040513d6020811015610b4b57600080fd5b81019080805190602001909291905050506124f7565b50505050505050565b600460009054906101000a900473ffffffffffffffffffffffffffffffffffffffff1681565b600960003373ffffffffffffffffffffffffffffffffffffffff1673ffffffffffffffffffffffffffffffffffffffff16815260200190815260200160002054811115610c28576040517f08c379a000000000000000000000000000000000000000000000000000000000815260040180806020018281038252602a815260200180612628602a913960400191505060405180910390fd5b6000600360009054906101000a900473ffffffffffffffffffffffffffffffffffffffff1690506000600460009054906101000a900473ffffffffffffffffffffffffffffffffffffffff16905060008173ffffffffffffffffffffffffffffffffffffffff166370a08231306040518263ffffffff1660e01b8152600401808273ffffffffffffffffffffffffffffffffffffffff16815260200191505060206040518083038186803b158015610cdf57600080fd5b505afa158015610cf3573d6000803e3d6000fd5b505050506040513d6020811015610d0957600080fd5b810190808051906020019092919050505090508173ffffffffffffffffffffffffffffffffffffffff1663095ea7b3600860009054906101000a900473ffffffffffffffffffffffffffffffffffffffff16836040518363ffffffff1660e01b8152600401808373ffffffffffffffffffffffffffffffffffffffff16815260200182815260200192505050602060405180830381600087803b158015610daf57600080fd5b505af1158015610dc3573d6000803e3d6000fd5b505050506040513d6020811015610dd957600080fd5b8101908080519060200190929190505050610e5c576040517f08c379a00000000000000000000000000000000000000000000000000000000081526004018080602001828103825260168152602001807f61546f6b656e20617070726f76616c206661696c65640000000000000000000081525060200191505060405180910390fd5b60008273ffffffffffffffffffffffffffffffffffffffff1663dd62ed3e30600860009054906101000a900473ffffffffffffffffffffffffffffffffffffffff166040518363ffffffff1660e01b8152600401808373ffffffffffffffffffffffffffffffffffffffff1681526020018273ffffffffffffffffffffffffffffffffffffffff1681526020019250505060206040518083038186803b158015610f0557600080fd5b505afa158015610f19573d6000803e3d6000fd5b505050506040513d6020811015610f2f57600080fd5b810190808051906020019092919050505011610fb3576040517f08c379a00000000000000000000000000000000000000000000000000000000081526004018080602001828103825260118152602001807f616c6c6f77616e636520746f6f206c6f7700000000000000000000000000000081525060200191505060405180910390fd5b60008373ffffffffffffffffffffffffffffffffffffffff166370a08231306040518263ffffffff1660e01b8152600401808273ffffffffffffffffffffffffffffffffffffffff16815260200191505060206040518083038186803b15801561101c57600080fd5b505afa158015611030573d6000803e3d6000fd5b505050506040513d602081101561104657600080fd5b8101908080519060200190929190505050146110ca576040517f08c379a000000000000000000000000000000000000000000000000000000000815260040180806020018281038252601e8152602001807f54686572652073686f756c646e277420626520737461626c65636f696e73000081525060200191505060405180910390fd5b6000600260009054906101000a900473ffffffffffffffffffffffffffffffffffffffff1673ffffffffffffffffffffffffffffffffffffffff166369328dec8584306040518463ffffffff1660e01b8152600401808473ffffffffffffffffffffffffffffffffffffffff1681526020018381526020018273ffffffffffffffffffffffffffffffffffffffff1681526020019350505050602060405180830381600087803b15801561117d57600080fd5b505af1158015611191573d6000803e3d6000fd5b505050506040513d60208110156111a757600080fd5b81019080805190602001909291905050501161122b576040517f08c379a000000000000000000000000000000000000000000000000000000000815260040180806020018281038252600f8152602001807f7769746864726177206661696c6564000000000000000000000000000000000081525060200191505060405180910390fd5b60008373ffffffffffffffffffffffffffffffffffffffff166370a08231306040518263ffffffff1660e01b8152600401808273ffffffffffffffffffffffffffffffffffffffff16815260200191505060206040518083038186803b15801561129457600080fd5b505afa1580156112a8573d6000803e3d6000fd5b505050506040513d60208110156112be57600080fd5b810190808051906020019092919050505011611342576040517f08c379a000000000000000000000000000000000000000000000000000000000815260040180806020018281038252601b8152602001807f54686572652073686f756c6420626520737461626c65636f696e73000000000081525060200191505060405180910390fd5b60008373ffffffffffffffffffffffffffffffffffffffff166370a08231306040518263ffffffff1660e01b8152600401808273ffffffffffffffffffffffffffffffffffffffff16815260200191505060206040518083038186803b1580156113ab57600080fd5b505afa1580156113bf573d6000803e3d6000fd5b505050506040513d60208110156113d557600080fd5b810190808051906020019092919050505090506000811161145e576040517f08c379a000000000000000000000000000000000000000000000000000000000815260040180806020018281038252600f8152602001807f6e6f20737461626c65636f696e7321000000000000000000000000000000000081525060200191505060405180910390fd5b61146b843383600061169f565b60008473ffffffffffffffffffffffffffffffffffffffff166370a08231306040518263ffffffff1660e01b8152600401808273ffffffffffffffffffffffffffffffffffffffff16815260200191505060206040518083038186803b1580156114d457600080fd5b505afa1580156114e8573d6000803e3d6000fd5b505050506040513d60208110156114fe57600080fd5b810190808051906020019092919050505014611565576040517f08c379a00000000000000000000000000000000000000000000000000000000081526004018080602001828103825260248152602001806126746024913960400191505060405180910390fd5b600081600960003373ffffffffffffffffffffffffffffffffffffffff1673ffffffffffffffffffffffffffffffffffffffff168152602001908152602001600020540310156115f9576000600960003373ffffffffffffffffffffffffffffffffffffffff1673ffffffffffffffffffffffffffffffffffffffff16815260200190815260200160002081905550611647565b80600960003373ffffffffffffffffffffffffffffffffffffffff1673ffffffffffffffffffffffffffffffffffffffff168152602001908152602001600020600082825403925050819055505b600081600a54031015611661576000600a81905550611672565b80600a600082825403925050819055505b5050505050565b600660009054906101000a900473ffffffffffffffffffffffffffffffffffffffff1681565b600080859050611768604051806060016040528060238152602001612698602391398273ffffffffffffffffffffffffffffffffffffffff166370a08231306040518263ffffffff1660e01b8152600401808273ffffffffffffffffffffffffffffffffffffffff16815260200191505060206040518083038186803b15801561172857600080fd5b505afa15801561173c573d6000803e3d6000fd5b505050506040513d602081101561175257600080fd5b81019080805190602001909291905050506124f7565b8073ffffffffffffffffffffffffffffffffffffffff1663095ea7b3600760009054906101000a900473ffffffffffffffffffffffffffffffffffffffff16866040518363ffffffff1660e01b8152600401808373ffffffffffffffffffffffffffffffffffffffff16815260200182815260200192505050602060405180830381600087803b1580156117fb57600080fd5b505af115801561180f573d6000803e3d6000fd5b505050506040513d602081101561182557600080fd5b81019080805190602001909291905050506118a8576040517f08c379a00000000000000000000000000000000000000000000000000000000081526004018080602001828103825260188152602001807f756e697377617020617070726f76652829206661696c6564000000000000000081525060200191505060405180910390fd5b6060600267ffffffffffffffff811180156118c257600080fd5b506040519080825280602002602001820160405280156118f15781602001602082028036833780820191505090505b509050818160008151811061190257fe5b602002602001019073ffffffffffffffffffffffffffffffffffffffff16908173ffffffffffffffffffffffffffffffffffffffff1681525050600160009054906101000a900473ffffffffffffffffffffffffffffffffffffffff1673ffffffffffffffffffffffffffffffffffffffff1663ad5c46486040518163ffffffff1660e01b815260040160206040518083038186803b1580156119a457600080fd5b505afa1580156119b8573d6000803e3d6000fd5b505050506040513d60208110156119ce57600080fd5b8101908080519060200190929190505050816001815181106119ec57fe5b602002602001019073ffffffffffffffffffffffffffffffffffffffff16908173ffffffffffffffffffffffffffffffffffffffff16815250506000841415611bdb57600160009054906101000a900473ffffffffffffffffffffffffffffffffffffffff1673ffffffffffffffffffffffffffffffffffffffff1663d06ca61f86836040518363ffffffff1660e01b81526004018083815260200180602001828103825283818151815260200191508051906020019060200280838360005b83811015611ac7578082015181840152602081019050611aac565b50505050905001935050505060006040518083038186803b158015611aeb57600080fd5b505afa158015611aff573d6000803e3d6000fd5b505050506040513d6000823e3d601f19601f820116820180604052506020811015611b2957600080fd5b8101908080516040519392919084640100000000821115611b4957600080fd5b83820191506020820185811115611b5f57600080fd5b8251866020820283011164010000000082111715611b7c57600080fd5b8083526020830192505050908051906020019060200280838360005b83811015611bb3578082015181840152602081019050611b98565b50505050905001604052505050600181518110611bcc57fe5b60200260200101519250611bdf565b8392505b600160009054906101000a900473ffffffffffffffffffffffffffffffffffffffff1673ffffffffffffffffffffffffffffffffffffffff166318cbafe58685848a426040518663ffffffff1660e01b815260040180868152602001858152602001806020018473ffffffffffffffffffffffffffffffffffffffff168152602001838152602001828103825285818151815260200191508051906020019060200280838360005b83811015611ca2578082015181840152602081019050611c87565b505050509050019650505050505050600060405180830381600087803b158015611ccb57600080fd5b505af1158015611cdf573d6000803e3d6000fd5b505050506040513d6000823e3d601f19601f820116820180604052506020811015611d0957600080fd5b8101908080516040519392919084640100000000821115611d2957600080fd5b83820191506020820185811115611d3f57600080fd5b8251866020820283011164010000000082111715611d5c57600080fd5b8083526020830192505050908051906020019060200280838360005b83811015611d93578082015181840152602081019050611d78565b5050505090500160405250505050611e64604051806060016040528060228152602001612652602291398373ffffffffffffffffffffffffffffffffffffffff166370a08231306040518263ffffffff1660e01b8152600401808273ffffffffffffffffffffffffffffffffffffffff16815260200191505060206040518083038186803b158015611e2457600080fd5b505afa158015611e38573d6000803e3d6000fd5b505050506040513d6020811015611e4e57600080fd5b81019080805190602001909291905050506124f7565b50505050505050565b6000600960008373ffffffffffffffffffffffffffffffffffffffff1673ffffffffffffffffffffffffffffffffffffffff168152602001908152602001600020549050919050565b600560009054906101000a900473ffffffffffffffffffffffffffffffffffffffff1681565b60008054906101000a900473ffffffffffffffffffffffffffffffffffffffff1681565b600860009054906101000a900473ffffffffffffffffffffffffffffffffffffffff1681565b6000600360009054906101000a900473ffffffffffffffffffffffffffffffffffffffff169050611f5a813060004261046a565b60008173ffffffffffffffffffffffffffffffffffffffff166370a08231306040518263ffffffff1660e01b8152600401808273ffffffffffffffffffffffffffffffffffffffff16815260200191505060206040518083038186803b158015611fc357600080fd5b505afa158015611fd7573d6000803e3d6000fd5b505050506040513d6020811015611fed57600080fd5b8101908080519060200190929190505050905061203f6040518060400160405280601e81526020017f737461626c6520616d6f756e74206265666f7265206465706f7369743a200000815250826124f7565b8173ffffffffffffffffffffffffffffffffffffffff1663095ea7b3600860009054906101000a900473ffffffffffffffffffffffffffffffffffffffff16836040518363ffffffff1660e01b8152600401808373ffffffffffffffffffffffffffffffffffffffff16815260200182815260200192505050602060405180830381600087803b1580156120d257600080fd5b505af11580156120e6573d6000803e3d6000fd5b505050506040513d60208110156120fc57600080fd5b810190808051906020019092919050505050600260009054906101000a900473ffffffffffffffffffffffffffffffffffffffff1673ffffffffffffffffffffffffffffffffffffffff1663e8eda9df83833060006040518563ffffffff1660e01b8152600401808573ffffffffffffffffffffffffffffffffffffffff1681526020018481526020018373ffffffffffffffffffffffffffffffffffffffff168152602001828152602001945050505050600060405180830381600087803b1580156121c857600080fd5b505af11580156121dc573d6000803e3d6000fd5b505050506000600460009054906101000a900473ffffffffffffffffffffffffffffffffffffffff1690506122466040518060400160405280601d81526020017f737461626c6520616d6f756e74206166746572206465706f7369743a20000000815250836124f7565b60008173ffffffffffffffffffffffffffffffffffffffff166370a08231306040518263ffffffff1660e01b8152600401808273ffffffffffffffffffffffffffffffffffffffff16815260200191505060206040518083038186803b1580156122af57600080fd5b505afa1580156122c3573d6000803e3d6000fd5b505050506040513d60208110156122d957600080fd5b8101908080519060200190929190505050905061232b6040518060400160405280601081526020017f61546f6b656e2062616c616e63653a2000000000000000000000000000000000815250826124f7565b82600960003373ffffffffffffffffffffffffffffffffffffffff1673ffffffffffffffffffffffffffffffffffffffff1681526020019081526020016000206000828254019250508190555082600a6000828254019250508190555050505050565b600760009054906101000a900473ffffffffffffffffffffffffffffffffffffffff1681565b600360009054906101000a900473ffffffffffffffffffffffffffffffffffffffff1681565b6124f3828260405160240180806020018373ffffffffffffffffffffffffffffffffffffffff168152602001828103825284818151815260200191508051906020019080838360005b8381101561243e578082015181840152602081019050612423565b50505050905090810190601f16801561246b5780820380516001836020036101000a031916815260200191505b5093505050506040516020818303038152906040527f319af333000000000000000000000000000000000000000000000000000000007bffffffffffffffffffffffffffffffffffffffffffffffffffffffff19166020820180517bffffffffffffffffffffffffffffffffffffffffffffffffffffffff83818316178352505050506125fe565b5050565b6125fa82826040516024018080602001838152602001828103825284818151815260200191508051906020019080838360005b8381101561254557808201518184015260208101905061252a565b50505050905090810190601f1680156125725780820380516001836020036101000a031916815260200191505b5093505050506040516020818303038152906040527f9710a9d0000000000000000000000000000000000000000000000000000000007bffffffffffffffffffffffffffffffffffffffffffffffffffffffff19166020820180517bffffffffffffffffffffffffffffffffffffffffffffffffffffffff83818316178352505050506125fe565b5050565b60008151905060006a636f6e736f6c652e6c6f679050602083016000808483855afa505050505056fe417474656d7074696e6720746f207769746864726177206d6f7265207468616e206465706f7369746564636f6e747261637420746f6b656e2062616c616e636520616674657220737761703a54686572652073686f756c646e277420626520737461626c65636f696e7320616761696e636f6e747261637420746f6b656e2062616c616e6365206265666f726520737761703aa26469706673582212204136dfdc04d4f6c9df6d85d148d6ad529a3aa64eca501b72a04c69110ad3a97764736f6c63430007000033a2646970667358221220b9f75ac18a74f179fa5812c959fb43f98ebef1dc618447b1441981724c4c4c9e64736f6c63430007000033",
  "linkReferences": {},
  "deployedLinkReferences": {}
}