{
  "_format": "hh-sol-artifact-1",
  "contractName": "Pool",
  "sourceName": "contracts/Pool.sol",
  "abi": [
    {
      "inputs": [
        {
          "internalType": "address",
          "name": "_owner",
          "type": "address"
        }
      ],
      "stateMutability": "nonpayable",
      "type": "constructor"
    },
    {
      "inputs": [],
      "name": "DAI",
      "outputs": [
        {
          "internalType": "address",
          "name": "",
          "type": "address"
        }
      ],
      "stateMutability": "view",
      "type": "function"
    },
    {
      "inputs": [],
      "name": "LENDING_POOL",
      "outputs": [
        {
          "internalType": "address",
          "name": "",
          "type": "address"
        }
      ],
      "stateMutability": "view",
      "type": "function"
    },
    {
      "inputs": [],
      "name": "UNISWAP_ROUTER",
      "outputs": [
        {
          "internalType": "address",
          "name": "",
          "type": "address"
        }
      ],
      "stateMutability": "view",
      "type": "function"
    },
    {
      "inputs": [],
      "name": "USDC",
      "outputs": [
        {
          "internalType": "address",
          "name": "",
          "type": "address"
        }
      ],
      "stateMutability": "view",
      "type": "function"
    },
    {
      "inputs": [],
      "name": "aDAI",
      "outputs": [
        {
          "internalType": "address",
          "name": "",
          "type": "address"
        }
      ],
      "stateMutability": "view",
      "type": "function"
    },
    {
      "inputs": [],
      "name": "aUSDC",
      "outputs": [
        {
          "internalType": "address",
          "name": "",
          "type": "address"
        }
      ],
      "stateMutability": "view",
      "type": "function"
    },
    {
      "inputs": [
        {
          "internalType": "address",
          "name": "account",
          "type": "address"
        }
      ],
      "name": "balanceOf",
      "outputs": [
        {
          "internalType": "uint256",
          "name": "",
          "type": "uint256"
        }
      ],
      "stateMutability": "view",
      "type": "function"
    },
    {
      "inputs": [],
      "name": "deposit",
      "outputs": [],
      "stateMutability": "payable",
      "type": "function"
    },
    {
      "inputs": [],
      "name": "getTotalBalance",
      "outputs": [
        {
          "internalType": "uint256",
          "name": "",
          "type": "uint256"
        }
      ],
      "stateMutability": "view",
      "type": "function"
    },
    {
      "inputs": [],
      "name": "owner",
      "outputs": [
        {
          "internalType": "address",
          "name": "",
          "type": "address"
        }
      ],
      "stateMutability": "view",
      "type": "function"
    },
    {
      "inputs": [
        {
          "internalType": "address",
          "name": "_token",
          "type": "address"
        },
        {
          "internalType": "address",
          "name": "_to",
          "type": "address"
        },
        {
          "internalType": "uint256",
          "name": "_amountOutMin",
          "type": "uint256"
        },
        {
          "internalType": "uint256",
          "name": "_deadline",
          "type": "uint256"
        }
      ],
      "name": "swapExactETHForTokens",
      "outputs": [],
      "stateMutability": "payable",
      "type": "function"
    },
    {
      "inputs": [
        {
          "internalType": "address",
          "name": "_token",
          "type": "address"
        },
        {
          "internalType": "address",
          "name": "_to",
          "type": "address"
        },
        {
          "internalType": "uint256",
          "name": "_amountIn",
          "type": "uint256"
        },
        {
          "internalType": "uint256",
          "name": "_amountOutMin",
          "type": "uint256"
        }
      ],
      "name": "swapExactTokensForETH",
      "outputs": [],
      "stateMutability": "nonpayable",
      "type": "function"
    },
    {
      "inputs": [
        {
          "internalType": "uint256",
          "name": "amount",
          "type": "uint256"
        }
      ],
      "name": "withdraw",
      "outputs": [],
      "stateMutability": "nonpayable",
      "type": "function"
    }
  ],
  "bytecode": "0x608060405273ff795577d9ac8bd7d90ee22b6c1703490b6512fd600360006101000a81548173ffffffffffffffffffffffffffffffffffffffff021916908373ffffffffffffffffffffffffffffffffffffffff16021790555073dcf0af9e59c002fa3aa091a46196b37530fd48a8600460006101000a81548173ffffffffffffffffffffffffffffffffffffffff021916908373ffffffffffffffffffffffffffffffffffffffff16021790555073dcfab8057d08634279f8201b55d311c2a67897d2600560006101000a81548173ffffffffffffffffffffffffffffffffffffffff021916908373ffffffffffffffffffffffffffffffffffffffff16021790555073f9155b335faa6c184ab2f2c4d5939d86268f3668600660006101000a81548173ffffffffffffffffffffffffffffffffffffffff021916908373ffffffffffffffffffffffffffffffffffffffff160217905550737a250d5630b4cf539739df2c5dacb4c659f2488d600760006101000a81548173ffffffffffffffffffffffffffffffffffffffff021916908373ffffffffffffffffffffffffffffffffffffffff160217905550739fe532197ad76c5a68961439604c037eb79681f0600860006101000a81548173ffffffffffffffffffffffffffffffffffffffff021916908373ffffffffffffffffffffffffffffffffffffffff16021790555034801561020e57600080fd5b506040516121553803806121558339818101604052602081101561023157600080fd5b8101908080519060200190929190505050806000806101000a81548173ffffffffffffffffffffffffffffffffffffffff021916908373ffffffffffffffffffffffffffffffffffffffff160217905550600760009054906101000a900473ffffffffffffffffffffffffffffffffffffffff16600160006101000a81548173ffffffffffffffffffffffffffffffffffffffff021916908373ffffffffffffffffffffffffffffffffffffffff160217905550600860009054906101000a900473ffffffffffffffffffffffffffffffffffffffff16600260006101000a81548173ffffffffffffffffffffffffffffffffffffffff021916908373ffffffffffffffffffffffffffffffffffffffff16021790555050611dfd806103586000396000f3fe6080604052600436106100c25760003560e01c806370a082311161007f578063b4dcfc7711610059578063b4dcfc7714610393578063d0e30db0146103d4578063d8264920146103de578063e0bab4c41461041f576100c2565b806370a08231146102ac57806389a30271146103115780638da5cb5b14610352576100c2565b806312b58349146100c757806312d4b07c146100f25780631a38a4fb1461016a5780632e1a7d4d146101ab578063559fda33146101e6578063594e135414610227575b600080fd5b3480156100d357600080fd5b506100dc610460565b6040518082815260200191505060405180910390f35b6101686004803603608081101561010857600080fd5b81019080803573ffffffffffffffffffffffffffffffffffffffff169060200190929190803573ffffffffffffffffffffffffffffffffffffffff169060200190929190803590602001909291908035906020019092919050505061046a565b005b34801561017657600080fd5b5061017f610b6a565b604051808273ffffffffffffffffffffffffffffffffffffffff16815260200191505060405180910390f35b3480156101b757600080fd5b506101e4600480360360208110156101ce57600080fd5b8101908080359060200190929190505050610b90565b005b3480156101f257600080fd5b506101fb610daa565b604051808273ffffffffffffffffffffffffffffffffffffffff16815260200191505060405180910390f35b34801561023357600080fd5b506102aa6004803603608081101561024a57600080fd5b81019080803573ffffffffffffffffffffffffffffffffffffffff169060200190929190803573ffffffffffffffffffffffffffffffffffffffff1690602001909291908035906020019092919080359060200190929190505050610dd0565b005b3480156102b857600080fd5b506102fb600480360360208110156102cf57600080fd5b81019080803573ffffffffffffffffffffffffffffffffffffffff16906020019092919050505061159e565b6040518082815260200191505060405180910390f35b34801561031d57600080fd5b506103266115e7565b604051808273ffffffffffffffffffffffffffffffffffffffff16815260200191505060405180910390f35b34801561035e57600080fd5b5061036761160d565b604051808273ffffffffffffffffffffffffffffffffffffffff16815260200191505060405180910390f35b34801561039f57600080fd5b506103a8611631565b604051808273ffffffffffffffffffffffffffffffffffffffff16815260200191505060405180910390f35b6103dc611657565b005b3480156103ea57600080fd5b506103f3611abf565b604051808273ffffffffffffffffffffffffffffffffffffffff16815260200191505060405180910390f35b34801561042b57600080fd5b50610434611ae5565b604051808273ffffffffffffffffffffffffffffffffffffffff16815260200191505060405180910390f35b6000600a54905090565b6000808590506104af6040518060400160405280600781526020017f77616c6c65743a0000000000000000000000000000000000000000000000000081525033611b0b565b6060600267ffffffffffffffff811180156104c957600080fd5b506040519080825280602002602001820160405280156104f85781602001602082028036833780820191505090505b509050600160009054906101000a900473ffffffffffffffffffffffffffffffffffffffff1673ffffffffffffffffffffffffffffffffffffffff1663ad5c46486040518163ffffffff1660e01b815260040160206040518083038186803b15801561056357600080fd5b505afa158015610577573d6000803e3d6000fd5b505050506040513d602081101561058d57600080fd5b8101908080519060200190929190505050816000815181106105ab57fe5b602002602001019073ffffffffffffffffffffffffffffffffffffffff16908173ffffffffffffffffffffffffffffffffffffffff168152505081816001815181106105f357fe5b602002602001019073ffffffffffffffffffffffffffffffffffffffff16908173ffffffffffffffffffffffffffffffffffffffff168152505061070d6040518060400160405280601a81526020017f746f6b656e2062616c616e6365206265666f726520737761703a0000000000008152508373ffffffffffffffffffffffffffffffffffffffff166370a08231896040518263ffffffff1660e01b8152600401808273ffffffffffffffffffffffffffffffffffffffff16815260200191505060206040518083038186803b1580156106cd57600080fd5b505afa1580156106e1573d6000803e3d6000fd5b505050506040513d60208110156106f757600080fd5b8101908080519060200190929190505050611c28565b60008514156108c257600160009054906101000a900473ffffffffffffffffffffffffffffffffffffffff1673ffffffffffffffffffffffffffffffffffffffff1663d06ca61f34836040518363ffffffff1660e01b81526004018083815260200180602001828103825283818151815260200191508051906020019060200280838360005b838110156107ae578082015181840152602081019050610793565b50505050905001935050505060006040518083038186803b1580156107d257600080fd5b505afa1580156107e6573d6000803e3d6000fd5b505050506040513d6000823e3d601f19601f82011682018060405250602081101561081057600080fd5b810190808051604051939291908464010000000082111561083057600080fd5b8382019150602082018581111561084657600080fd5b825186602082028301116401000000008211171561086357600080fd5b8083526020830192505050908051906020019060200280838360005b8381101561089a57808201518184015260208101905061087f565b505050509050016040525050506001815181106108b357fe5b602002602001015192506108c6565b8492505b600160009054906101000a900473ffffffffffffffffffffffffffffffffffffffff1673ffffffffffffffffffffffffffffffffffffffff16637ff36ab53485848a896040518663ffffffff1660e01b815260040180858152602001806020018473ffffffffffffffffffffffffffffffffffffffff168152602001838152602001828103825285818151815260200191508051906020019060200280838360005b83811015610983578082015181840152602081019050610968565b50505050905001955050505050506000604051808303818588803b1580156109aa57600080fd5b505af11580156109be573d6000803e3d6000fd5b50505050506040513d6000823e3d601f19601f8201168201806040525060208110156109e957600080fd5b8101908080516040519392919084640100000000821115610a0957600080fd5b83820191506020820185811115610a1f57600080fd5b8251866020820283011164010000000082111715610a3c57600080fd5b8083526020830192505050908051906020019060200280838360005b83811015610a73578082015181840152602081019050610a58565b5050505090500160405250505050610b616040518060400160405280601981526020017f746f6b656e2062616c616e636520616674657220737761703a000000000000008152508373ffffffffffffffffffffffffffffffffffffffff166370a08231896040518263ffffffff1660e01b8152600401808273ffffffffffffffffffffffffffffffffffffffff16815260200191505060206040518083038186803b158015610b2157600080fd5b505afa158015610b35573d6000803e3d6000fd5b505050506040513d6020811015610b4b57600080fd5b8101908080519060200190929190505050611c28565b50505050505050565b600460009054906101000a900473ffffffffffffffffffffffffffffffffffffffff1681565b600960003373ffffffffffffffffffffffffffffffffffffffff1673ffffffffffffffffffffffffffffffffffffffff16815260200190815260200160002054811115610c28576040517f08c379a000000000000000000000000000000000000000000000000000000000815260040180806020018281038252602a815260200180611d59602a913960400191505060405180910390fd5b6000600360009054906101000a900473ffffffffffffffffffffffffffffffffffffffff169050600260009054906101000a900473ffffffffffffffffffffffffffffffffffffffff1673ffffffffffffffffffffffffffffffffffffffff166369328dec8284306040518463ffffffff1660e01b8152600401808473ffffffffffffffffffffffffffffffffffffffff1681526020018381526020018273ffffffffffffffffffffffffffffffffffffffff1681526020019350505050602060405180830381600087803b158015610d0057600080fd5b505af1158015610d14573d6000803e3d6000fd5b505050506040513d6020811015610d2a57600080fd5b810190808051906020019092919050505050610d498133846000610dd0565b81600960003373ffffffffffffffffffffffffffffffffffffffff1673ffffffffffffffffffffffffffffffffffffffff1681526020019081526020016000206000828254039250508190555081600a600082825403925050819055505050565b600660009054906101000a900473ffffffffffffffffffffffffffffffffffffffff1681565b600080859050610e99604051806060016040528060238152602001611da5602391398273ffffffffffffffffffffffffffffffffffffffff166370a08231306040518263ffffffff1660e01b8152600401808273ffffffffffffffffffffffffffffffffffffffff16815260200191505060206040518083038186803b158015610e5957600080fd5b505afa158015610e6d573d6000803e3d6000fd5b505050506040513d6020811015610e8357600080fd5b8101908080519060200190929190505050611c28565b8073ffffffffffffffffffffffffffffffffffffffff1663095ea7b3600760009054906101000a900473ffffffffffffffffffffffffffffffffffffffff16866040518363ffffffff1660e01b8152600401808373ffffffffffffffffffffffffffffffffffffffff16815260200182815260200192505050602060405180830381600087803b158015610f2c57600080fd5b505af1158015610f40573d6000803e3d6000fd5b505050506040513d6020811015610f5657600080fd5b8101908080519060200190929190505050610fd9576040517f08c379a00000000000000000000000000000000000000000000000000000000081526004018080602001828103825260188152602001807f756e697377617020617070726f76652829206661696c6564000000000000000081525060200191505060405180910390fd5b6060600267ffffffffffffffff81118015610ff357600080fd5b506040519080825280602002602001820160405280156110225781602001602082028036833780820191505090505b509050818160008151811061103357fe5b602002602001019073ffffffffffffffffffffffffffffffffffffffff16908173ffffffffffffffffffffffffffffffffffffffff1681525050600160009054906101000a900473ffffffffffffffffffffffffffffffffffffffff1673ffffffffffffffffffffffffffffffffffffffff1663ad5c46486040518163ffffffff1660e01b815260040160206040518083038186803b1580156110d557600080fd5b505afa1580156110e9573d6000803e3d6000fd5b505050506040513d60208110156110ff57600080fd5b81019080805190602001909291905050508160018151811061111d57fe5b602002602001019073ffffffffffffffffffffffffffffffffffffffff16908173ffffffffffffffffffffffffffffffffffffffff1681525050600084141561130c57600160009054906101000a900473ffffffffffffffffffffffffffffffffffffffff1673ffffffffffffffffffffffffffffffffffffffff1663d06ca61f86836040518363ffffffff1660e01b81526004018083815260200180602001828103825283818151815260200191508051906020019060200280838360005b838110156111f85780820151818401526020810190506111dd565b50505050905001935050505060006040518083038186803b15801561121c57600080fd5b505afa158015611230573d6000803e3d6000fd5b505050506040513d6000823e3d601f19601f82011682018060405250602081101561125a57600080fd5b810190808051604051939291908464010000000082111561127a57600080fd5b8382019150602082018581111561129057600080fd5b82518660208202830111640100000000821117156112ad57600080fd5b8083526020830192505050908051906020019060200280838360005b838110156112e45780820151818401526020810190506112c9565b505050509050016040525050506001815181106112fd57fe5b60200260200101519250611310565b8392505b600160009054906101000a900473ffffffffffffffffffffffffffffffffffffffff1673ffffffffffffffffffffffffffffffffffffffff166318cbafe58686848a426040518663ffffffff1660e01b815260040180868152602001858152602001806020018473ffffffffffffffffffffffffffffffffffffffff168152602001838152602001828103825285818151815260200191508051906020019060200280838360005b838110156113d35780820151818401526020810190506113b8565b505050509050019650505050505050600060405180830381600087803b1580156113fc57600080fd5b505af1158015611410573d6000803e3d6000fd5b505050506040513d6000823e3d601f19601f82011682018060405250602081101561143a57600080fd5b810190808051604051939291908464010000000082111561145a57600080fd5b8382019150602082018581111561147057600080fd5b825186602082028301116401000000008211171561148d57600080fd5b8083526020830192505050908051906020019060200280838360005b838110156114c45780820151818401526020810190506114a9565b5050505090500160405250505050611595604051806060016040528060228152602001611d83602291398373ffffffffffffffffffffffffffffffffffffffff166370a08231306040518263ffffffff1660e01b8152600401808273ffffffffffffffffffffffffffffffffffffffff16815260200191505060206040518083038186803b15801561155557600080fd5b505afa158015611569573d6000803e3d6000fd5b505050506040513d602081101561157f57600080fd5b8101908080519060200190929190505050611c28565b50505050505050565b6000600960008373ffffffffffffffffffffffffffffffffffffffff1673ffffffffffffffffffffffffffffffffffffffff168152602001908152602001600020549050919050565b600560009054906101000a900473ffffffffffffffffffffffffffffffffffffffff1681565b60008054906101000a900473ffffffffffffffffffffffffffffffffffffffff1681565b600860009054906101000a900473ffffffffffffffffffffffffffffffffffffffff1681565b6000600360009054906101000a900473ffffffffffffffffffffffffffffffffffffffff16905061168b813060004261046a565b60008173ffffffffffffffffffffffffffffffffffffffff166370a08231306040518263ffffffff1660e01b8152600401808273ffffffffffffffffffffffffffffffffffffffff16815260200191505060206040518083038186803b1580156116f457600080fd5b505afa158015611708573d6000803e3d6000fd5b505050506040513d602081101561171e57600080fd5b810190808051906020019092919050505090506117706040518060400160405280601e81526020017f737461626c6520616d6f756e74206265666f7265206465706f7369743a20000081525082611c28565b8173ffffffffffffffffffffffffffffffffffffffff1663095ea7b3600860009054906101000a900473ffffffffffffffffffffffffffffffffffffffff16836040518363ffffffff1660e01b8152600401808373ffffffffffffffffffffffffffffffffffffffff16815260200182815260200192505050602060405180830381600087803b15801561180357600080fd5b505af1158015611817573d6000803e3d6000fd5b505050506040513d602081101561182d57600080fd5b810190808051906020019092919050505050600260009054906101000a900473ffffffffffffffffffffffffffffffffffffffff1673ffffffffffffffffffffffffffffffffffffffff1663e8eda9df83833060006040518563ffffffff1660e01b8152600401808573ffffffffffffffffffffffffffffffffffffffff1681526020018481526020018373ffffffffffffffffffffffffffffffffffffffff168152602001828152602001945050505050600060405180830381600087803b1580156118f957600080fd5b505af115801561190d573d6000803e3d6000fd5b505050506000600460009054906101000a900473ffffffffffffffffffffffffffffffffffffffff1690506119776040518060400160405280601d81526020017f737461626c6520616d6f756e74206166746572206465706f7369743a2000000081525083611c28565b60008173ffffffffffffffffffffffffffffffffffffffff166370a08231306040518263ffffffff1660e01b8152600401808273ffffffffffffffffffffffffffffffffffffffff16815260200191505060206040518083038186803b1580156119e057600080fd5b505afa1580156119f4573d6000803e3d6000fd5b505050506040513d6020811015611a0a57600080fd5b81019080805190602001909291905050509050611a5c6040518060400160405280601081526020017f61546f6b656e2062616c616e63653a200000000000000000000000000000000081525082611c28565b82600960003373ffffffffffffffffffffffffffffffffffffffff1673ffffffffffffffffffffffffffffffffffffffff1681526020019081526020016000206000828254019250508190555082600a6000828254019250508190555050505050565b600760009054906101000a900473ffffffffffffffffffffffffffffffffffffffff1681565b600360009054906101000a900473ffffffffffffffffffffffffffffffffffffffff1681565b611c24828260405160240180806020018373ffffffffffffffffffffffffffffffffffffffff168152602001828103825284818151815260200191508051906020019080838360005b83811015611b6f578082015181840152602081019050611b54565b50505050905090810190601f168015611b9c5780820380516001836020036101000a031916815260200191505b5093505050506040516020818303038152906040527f319af333000000000000000000000000000000000000000000000000000000007bffffffffffffffffffffffffffffffffffffffffffffffffffffffff19166020820180517bffffffffffffffffffffffffffffffffffffffffffffffffffffffff8381831617835250505050611d2f565b5050565b611d2b82826040516024018080602001838152602001828103825284818151815260200191508051906020019080838360005b83811015611c76578082015181840152602081019050611c5b565b50505050905090810190601f168015611ca35780820380516001836020036101000a031916815260200191505b5093505050506040516020818303038152906040527f9710a9d0000000000000000000000000000000000000000000000000000000007bffffffffffffffffffffffffffffffffffffffffffffffffffffffff19166020820180517bffffffffffffffffffffffffffffffffffffffffffffffffffffffff8381831617835250505050611d2f565b5050565b60008151905060006a636f6e736f6c652e6c6f679050602083016000808483855afa505050505056fe417474656d7074696e6720746f207769746864726177206d6f7265207468616e206465706f7369746564636f6e747261637420746f6b656e2062616c616e636520616674657220737761703a636f6e747261637420746f6b656e2062616c616e6365206265666f726520737761703aa2646970667358221220217bd1df9f432cc9110d1d56ebc02dd1c56d37aa0ee17395a37dc8179890bebc64736f6c63430007000033",
  "linkReferences": {},
  "deployedLinkReferences": {}
}