{
  "_format": "hh-sol-artifact-1",
  "contractName": "PoolFactory",
  "sourceName": "contracts/PoolFactory.sol",
  "abi": [
    {
      "inputs": [],
      "stateMutability": "nonpayable",
      "type": "constructor"
    },
    {
      "inputs": [],
      "name": "getPools",
      "outputs": [
        {
          "internalType": "contract Pool[]",
          "name": "",
          "type": "address[]"
        }
      ],
      "stateMutability": "view",
      "type": "function"
    },
    {
      "inputs": [
        {
          "internalType": "address",
          "name": "_owner",
          "type": "address"
        }
      ],
      "name": "newPool",
      "outputs": [],
      "stateMutability": "nonpayable",
      "type": "function"
    },
    {
      "inputs": [],
      "name": "owner",
      "outputs": [
        {
          "internalType": "address",
          "name": "",
          "type": "address"
        }
      ],
      "stateMutability": "view",
      "type": "function"
    }
  ],
  "bytecode": "0x608060405234801561001057600080fd5b5033600160006101000a81548173ffffffffffffffffffffffffffffffffffffffff021916908373ffffffffffffffffffffffffffffffffffffffff16021790555061250b806100616000396000f3fe608060405234801561001057600080fd5b50600436106100415760003560e01c80633c5c7fb314610046578063673a2a1f146100625780638da5cb5b14610080575b600080fd5b610060600480360381019061005b9190610213565b61009e565b005b61006a61013d565b60405161007791906102eb565b60405180910390f35b6100886101cb565b60405161009591906102d0565b60405180910390f35b6000816040516100ad906101f1565b6100b791906102d0565b604051809103906000f0801580156100d3573d6000803e3d6000fd5b5090506000819080600181540180825580915050600190039060005260206000200160009091909190916101000a81548173ffffffffffffffffffffffffffffffffffffffff021916908373ffffffffffffffffffffffffffffffffffffffff1602179055505050565b606060008054806020026020016040519081016040528092919081815260200182805480156101c157602002820191906000526020600020905b8160009054906101000a900473ffffffffffffffffffffffffffffffffffffffff1673ffffffffffffffffffffffffffffffffffffffff1681526020019060010190808311610177575b5050505050905090565b600160009054906101000a900473ffffffffffffffffffffffffffffffffffffffff1681565b612122806103b483390190565b60008135905061020d8161039c565b92915050565b60006020828403121561022557600080fd5b6000610233848285016101fe565b91505092915050565b600061024883836102c1565b60208301905092915050565b61025d81610346565b82525050565b600061026e8261031d565b6102788185610335565b93506102838361030d565b8060005b838110156102b457815161029b888261023c565b97506102a683610328565b925050600181019050610287565b5085935050505092915050565b6102ca81610378565b82525050565b60006020820190506102e56000830184610254565b92915050565b600060208201905081810360008301526103058184610263565b905092915050565b6000819050602082019050919050565b600081519050919050565b6000602082019050919050565b600082825260208201905092915050565b600061035182610358565b9050919050565b600073ffffffffffffffffffffffffffffffffffffffff82169050919050565b60006103838261038a565b9050919050565b600061039582610358565b9050919050565b6103a581610346565b81146103b057600080fd5b5056fe6080604052736b175474e89094c44da98b954eedeac495271d0f600360006101000a81548173ffffffffffffffffffffffffffffffffffffffff021916908373ffffffffffffffffffffffffffffffffffffffff16021790555073a0b86991c6218b36c1d19d4a2e9eb0ce3606eb48600460006101000a81548173ffffffffffffffffffffffffffffffffffffffff021916908373ffffffffffffffffffffffffffffffffffffffff16021790555073bcca60bb61934080951369a648fb03df4f96263c600560006101000a81548173ffffffffffffffffffffffffffffffffffffffff021916908373ffffffffffffffffffffffffffffffffffffffff160217905550737a250d5630b4cf539739df2c5dacb4c659f2488d600660006101000a81548173ffffffffffffffffffffffffffffffffffffffff021916908373ffffffffffffffffffffffffffffffffffffffff160217905550737d2768de32b0b80b7a3454c06bdac94a69ddc7a9600760006101000a81548173ffffffffffffffffffffffffffffffffffffffff021916908373ffffffffffffffffffffffffffffffffffffffff1602179055503480156101b957600080fd5b50604051612122380380612122833981810160405260208110156101dc57600080fd5b8101908080519060200190929190505050806000806101000a81548173ffffffffffffffffffffffffffffffffffffffff021916908373ffffffffffffffffffffffffffffffffffffffff160217905550600660009054906101000a900473ffffffffffffffffffffffffffffffffffffffff16600160006101000a81548173ffffffffffffffffffffffffffffffffffffffff021916908373ffffffffffffffffffffffffffffffffffffffff160217905550600760009054906101000a900473ffffffffffffffffffffffffffffffffffffffff16600260006101000a81548173ffffffffffffffffffffffffffffffffffffffff021916908373ffffffffffffffffffffffffffffffffffffffff16021790555050611e1f806103036000396000f3fe6080604052600436106100a75760003560e01c806389a302711161006457806389a30271146102b55780638da5cb5b146102f6578063b4dcfc7714610337578063d0e30db014610378578063d826492014610382578063e0bab4c4146103c3576100a7565b806312b58349146100ac57806312d4b07c146100d75780632e1a7d4d1461014f578063559fda331461018a578063594e1354146101cb57806370a0823114610250575b600080fd5b3480156100b857600080fd5b506100c1610404565b6040518082815260200191505060405180910390f35b61014d600480360360808110156100ed57600080fd5b81019080803573ffffffffffffffffffffffffffffffffffffffff169060200190929190803573ffffffffffffffffffffffffffffffffffffffff169060200190929190803590602001909291908035906020019092919050505061040e565b005b34801561015b57600080fd5b506101886004803603602081101561017257600080fd5b8101908080359060200190929190505050610b0e565b005b34801561019657600080fd5b5061019f610d28565b604051808273ffffffffffffffffffffffffffffffffffffffff16815260200191505060405180910390f35b3480156101d757600080fd5b5061024e600480360360808110156101ee57600080fd5b81019080803573ffffffffffffffffffffffffffffffffffffffff169060200190929190803573ffffffffffffffffffffffffffffffffffffffff1690602001909291908035906020019092919080359060200190929190505050610d4e565b005b34801561025c57600080fd5b5061029f6004803603602081101561027357600080fd5b81019080803573ffffffffffffffffffffffffffffffffffffffff16906020019092919050505061151c565b6040518082815260200191505060405180910390f35b3480156102c157600080fd5b506102ca611565565b604051808273ffffffffffffffffffffffffffffffffffffffff16815260200191505060405180910390f35b34801561030257600080fd5b5061030b61158b565b604051808273ffffffffffffffffffffffffffffffffffffffff16815260200191505060405180910390f35b34801561034357600080fd5b5061034c6115af565b604051808273ffffffffffffffffffffffffffffffffffffffff16815260200191505060405180910390f35b6103806115d5565b005b34801561038e57600080fd5b50610397611ae1565b604051808273ffffffffffffffffffffffffffffffffffffffff16815260200191505060405180910390f35b3480156103cf57600080fd5b506103d8611b07565b604051808273ffffffffffffffffffffffffffffffffffffffff16815260200191505060405180910390f35b6000600954905090565b6000808590506104536040518060400160405280600781526020017f77616c6c65743a0000000000000000000000000000000000000000000000000081525033611b2d565b6060600267ffffffffffffffff8111801561046d57600080fd5b5060405190808252806020026020018201604052801561049c5781602001602082028036833780820191505090505b509050600160009054906101000a900473ffffffffffffffffffffffffffffffffffffffff1673ffffffffffffffffffffffffffffffffffffffff1663ad5c46486040518163ffffffff1660e01b815260040160206040518083038186803b15801561050757600080fd5b505afa15801561051b573d6000803e3d6000fd5b505050506040513d602081101561053157600080fd5b81019080805190602001909291905050508160008151811061054f57fe5b602002602001019073ffffffffffffffffffffffffffffffffffffffff16908173ffffffffffffffffffffffffffffffffffffffff1681525050818160018151811061059757fe5b602002602001019073ffffffffffffffffffffffffffffffffffffffff16908173ffffffffffffffffffffffffffffffffffffffff16815250506106b16040518060400160405280601a81526020017f746f6b656e2062616c616e6365206265666f726520737761703a0000000000008152508373ffffffffffffffffffffffffffffffffffffffff166370a08231896040518263ffffffff1660e01b8152600401808273ffffffffffffffffffffffffffffffffffffffff16815260200191505060206040518083038186803b15801561067157600080fd5b505afa158015610685573d6000803e3d6000fd5b505050506040513d602081101561069b57600080fd5b8101908080519060200190929190505050611c4a565b600085141561086657600160009054906101000a900473ffffffffffffffffffffffffffffffffffffffff1673ffffffffffffffffffffffffffffffffffffffff1663d06ca61f34836040518363ffffffff1660e01b81526004018083815260200180602001828103825283818151815260200191508051906020019060200280838360005b83811015610752578082015181840152602081019050610737565b50505050905001935050505060006040518083038186803b15801561077657600080fd5b505afa15801561078a573d6000803e3d6000fd5b505050506040513d6000823e3d601f19601f8201168201806040525060208110156107b457600080fd5b81019080805160405193929190846401000000008211156107d457600080fd5b838201915060208201858111156107ea57600080fd5b825186602082028301116401000000008211171561080757600080fd5b8083526020830192505050908051906020019060200280838360005b8381101561083e578082015181840152602081019050610823565b5050505090500160405250505060018151811061085757fe5b6020026020010151925061086a565b8492505b600160009054906101000a900473ffffffffffffffffffffffffffffffffffffffff1673ffffffffffffffffffffffffffffffffffffffff16637ff36ab53485848a896040518663ffffffff1660e01b815260040180858152602001806020018473ffffffffffffffffffffffffffffffffffffffff168152602001838152602001828103825285818151815260200191508051906020019060200280838360005b8381101561092757808201518184015260208101905061090c565b50505050905001955050505050506000604051808303818588803b15801561094e57600080fd5b505af1158015610962573d6000803e3d6000fd5b50505050506040513d6000823e3d601f19601f82011682018060405250602081101561098d57600080fd5b81019080805160405193929190846401000000008211156109ad57600080fd5b838201915060208201858111156109c357600080fd5b82518660208202830111640100000000821117156109e057600080fd5b8083526020830192505050908051906020019060200280838360005b83811015610a175780820151818401526020810190506109fc565b5050505090500160405250505050610b056040518060400160405280601981526020017f746f6b656e2062616c616e636520616674657220737761703a000000000000008152508373ffffffffffffffffffffffffffffffffffffffff166370a08231896040518263ffffffff1660e01b8152600401808273ffffffffffffffffffffffffffffffffffffffff16815260200191505060206040518083038186803b158015610ac557600080fd5b505afa158015610ad9573d6000803e3d6000fd5b505050506040513d6020811015610aef57600080fd5b8101908080519060200190929190505050611c4a565b50505050505050565b600860003373ffffffffffffffffffffffffffffffffffffffff1673ffffffffffffffffffffffffffffffffffffffff16815260200190815260200160002054811115610ba6576040517f08c379a000000000000000000000000000000000000000000000000000000000815260040180806020018281038252602a815260200180611d7b602a913960400191505060405180910390fd5b6000600460009054906101000a900473ffffffffffffffffffffffffffffffffffffffff169050600260009054906101000a900473ffffffffffffffffffffffffffffffffffffffff1673ffffffffffffffffffffffffffffffffffffffff166369328dec8284306040518463ffffffff1660e01b8152600401808473ffffffffffffffffffffffffffffffffffffffff1681526020018381526020018273ffffffffffffffffffffffffffffffffffffffff1681526020019350505050602060405180830381600087803b158015610c7e57600080fd5b505af1158015610c92573d6000803e3d6000fd5b505050506040513d6020811015610ca857600080fd5b810190808051906020019092919050505050610cc78133846000610d4e565b81600860003373ffffffffffffffffffffffffffffffffffffffff1673ffffffffffffffffffffffffffffffffffffffff16815260200190815260200160002060008282540392505081905550816009600082825403925050819055505050565b600560009054906101000a900473ffffffffffffffffffffffffffffffffffffffff1681565b600080859050610e17604051806060016040528060238152602001611dc7602391398273ffffffffffffffffffffffffffffffffffffffff166370a08231306040518263ffffffff1660e01b8152600401808273ffffffffffffffffffffffffffffffffffffffff16815260200191505060206040518083038186803b158015610dd757600080fd5b505afa158015610deb573d6000803e3d6000fd5b505050506040513d6020811015610e0157600080fd5b8101908080519060200190929190505050611c4a565b8073ffffffffffffffffffffffffffffffffffffffff1663095ea7b3600660009054906101000a900473ffffffffffffffffffffffffffffffffffffffff16866040518363ffffffff1660e01b8152600401808373ffffffffffffffffffffffffffffffffffffffff16815260200182815260200192505050602060405180830381600087803b158015610eaa57600080fd5b505af1158015610ebe573d6000803e3d6000fd5b505050506040513d6020811015610ed457600080fd5b8101908080519060200190929190505050610f57576040517f08c379a00000000000000000000000000000000000000000000000000000000081526004018080602001828103825260188152602001807f756e697377617020617070726f76652829206661696c6564000000000000000081525060200191505060405180910390fd5b6060600267ffffffffffffffff81118015610f7157600080fd5b50604051908082528060200260200182016040528015610fa05781602001602082028036833780820191505090505b5090508181600081518110610fb157fe5b602002602001019073ffffffffffffffffffffffffffffffffffffffff16908173ffffffffffffffffffffffffffffffffffffffff1681525050600160009054906101000a900473ffffffffffffffffffffffffffffffffffffffff1673ffffffffffffffffffffffffffffffffffffffff1663ad5c46486040518163ffffffff1660e01b815260040160206040518083038186803b15801561105357600080fd5b505afa158015611067573d6000803e3d6000fd5b505050506040513d602081101561107d57600080fd5b81019080805190602001909291905050508160018151811061109b57fe5b602002602001019073ffffffffffffffffffffffffffffffffffffffff16908173ffffffffffffffffffffffffffffffffffffffff1681525050600084141561128a57600160009054906101000a900473ffffffffffffffffffffffffffffffffffffffff1673ffffffffffffffffffffffffffffffffffffffff1663d06ca61f86836040518363ffffffff1660e01b81526004018083815260200180602001828103825283818151815260200191508051906020019060200280838360005b8381101561117657808201518184015260208101905061115b565b50505050905001935050505060006040518083038186803b15801561119a57600080fd5b505afa1580156111ae573d6000803e3d6000fd5b505050506040513d6000823e3d601f19601f8201168201806040525060208110156111d857600080fd5b81019080805160405193929190846401000000008211156111f857600080fd5b8382019150602082018581111561120e57600080fd5b825186602082028301116401000000008211171561122b57600080fd5b8083526020830192505050908051906020019060200280838360005b83811015611262578082015181840152602081019050611247565b5050505090500160405250505060018151811061127b57fe5b6020026020010151925061128e565b8392505b600160009054906101000a900473ffffffffffffffffffffffffffffffffffffffff1673ffffffffffffffffffffffffffffffffffffffff166318cbafe58686848a426040518663ffffffff1660e01b815260040180868152602001858152602001806020018473ffffffffffffffffffffffffffffffffffffffff168152602001838152602001828103825285818151815260200191508051906020019060200280838360005b83811015611351578082015181840152602081019050611336565b505050509050019650505050505050600060405180830381600087803b15801561137a57600080fd5b505af115801561138e573d6000803e3d6000fd5b505050506040513d6000823e3d601f19601f8201168201806040525060208110156113b857600080fd5b81019080805160405193929190846401000000008211156113d857600080fd5b838201915060208201858111156113ee57600080fd5b825186602082028301116401000000008211171561140b57600080fd5b8083526020830192505050908051906020019060200280838360005b83811015611442578082015181840152602081019050611427565b5050505090500160405250505050611513604051806060016040528060228152602001611da5602291398373ffffffffffffffffffffffffffffffffffffffff166370a08231306040518263ffffffff1660e01b8152600401808273ffffffffffffffffffffffffffffffffffffffff16815260200191505060206040518083038186803b1580156114d357600080fd5b505afa1580156114e7573d6000803e3d6000fd5b505050506040513d60208110156114fd57600080fd5b8101908080519060200190929190505050611c4a565b50505050505050565b6000600860008373ffffffffffffffffffffffffffffffffffffffff1673ffffffffffffffffffffffffffffffffffffffff168152602001908152602001600020549050919050565b600460009054906101000a900473ffffffffffffffffffffffffffffffffffffffff1681565b60008054906101000a900473ffffffffffffffffffffffffffffffffffffffff1681565b600760009054906101000a900473ffffffffffffffffffffffffffffffffffffffff1681565b6000600460009054906101000a900473ffffffffffffffffffffffffffffffffffffffff169050611609813060004261040e565b60008173ffffffffffffffffffffffffffffffffffffffff166370a08231306040518263ffffffff1660e01b8152600401808273ffffffffffffffffffffffffffffffffffffffff16815260200191505060206040518083038186803b15801561167257600080fd5b505afa158015611686573d6000803e3d6000fd5b505050506040513d602081101561169c57600080fd5b810190808051906020019092919050505090506116ee6040518060400160405280601e81526020017f737461626c6520616d6f756e74206265666f7265206465706f7369743a20000081525082611c4a565b8173ffffffffffffffffffffffffffffffffffffffff1663095ea7b3600760009054906101000a900473ffffffffffffffffffffffffffffffffffffffff16836040518363ffffffff1660e01b8152600401808373ffffffffffffffffffffffffffffffffffffffff16815260200182815260200192505050602060405180830381600087803b15801561178157600080fd5b505af1158015611795573d6000803e3d6000fd5b505050506040513d60208110156117ab57600080fd5b810190808051906020019092919050505050600260009054906101000a900473ffffffffffffffffffffffffffffffffffffffff1673ffffffffffffffffffffffffffffffffffffffff1663e8eda9df83833060006040518563ffffffff1660e01b8152600401808573ffffffffffffffffffffffffffffffffffffffff1681526020018481526020018373ffffffffffffffffffffffffffffffffffffffff168152602001828152602001945050505050600060405180830381600087803b15801561187757600080fd5b505af115801561188b573d6000803e3d6000fd5b505050506000600560009054906101000a900473ffffffffffffffffffffffffffffffffffffffff1690508273ffffffffffffffffffffffffffffffffffffffff166370a08231306040518263ffffffff1660e01b8152600401808273ffffffffffffffffffffffffffffffffffffffff16815260200191505060206040518083038186803b15801561191d57600080fd5b505afa158015611931573d6000803e3d6000fd5b505050506040513d602081101561194757600080fd5b810190808051906020019092919050505091506119996040518060400160405280601d81526020017f737461626c6520616d6f756e74206166746572206465706f7369743a2000000081525083611c4a565b60008173ffffffffffffffffffffffffffffffffffffffff166370a08231306040518263ffffffff1660e01b8152600401808273ffffffffffffffffffffffffffffffffffffffff16815260200191505060206040518083038186803b158015611a0257600080fd5b505afa158015611a16573d6000803e3d6000fd5b505050506040513d6020811015611a2c57600080fd5b81019080805190602001909291905050509050611a7e6040518060400160405280601081526020017f61546f6b656e2062616c616e63653a200000000000000000000000000000000081525082611c4a565b80600860003373ffffffffffffffffffffffffffffffffffffffff1673ffffffffffffffffffffffffffffffffffffffff168152602001908152602001600020600082825401925050819055508060096000828254019250508190555050505050565b600660009054906101000a900473ffffffffffffffffffffffffffffffffffffffff1681565b600360009054906101000a900473ffffffffffffffffffffffffffffffffffffffff1681565b611c46828260405160240180806020018373ffffffffffffffffffffffffffffffffffffffff168152602001828103825284818151815260200191508051906020019080838360005b83811015611b91578082015181840152602081019050611b76565b50505050905090810190601f168015611bbe5780820380516001836020036101000a031916815260200191505b5093505050506040516020818303038152906040527f319af333000000000000000000000000000000000000000000000000000000007bffffffffffffffffffffffffffffffffffffffffffffffffffffffff19166020820180517bffffffffffffffffffffffffffffffffffffffffffffffffffffffff8381831617835250505050611d51565b5050565b611d4d82826040516024018080602001838152602001828103825284818151815260200191508051906020019080838360005b83811015611c98578082015181840152602081019050611c7d565b50505050905090810190601f168015611cc55780820380516001836020036101000a031916815260200191505b5093505050506040516020818303038152906040527f9710a9d0000000000000000000000000000000000000000000000000000000007bffffffffffffffffffffffffffffffffffffffffffffffffffffffff19166020820180517bffffffffffffffffffffffffffffffffffffffffffffffffffffffff8381831617835250505050611d51565b5050565b60008151905060006a636f6e736f6c652e6c6f679050602083016000808483855afa505050505056fe417474656d7074696e6720746f207769746864726177206d6f7265207468616e206465706f7369746564636f6e747261637420746f6b656e2062616c616e636520616674657220737761703a636f6e747261637420746f6b656e2062616c616e6365206265666f726520737761703aa26469706673582212207e8629e721585be958f8e258b270a6931b4a967168f1a9154e1d566984ca219d64736f6c63430007000033a26469706673582212209cf29c251797cb05eeadd0aafed113abe8b4ae66aa545f045246356f7e3278e064736f6c63430007000033",
  "linkReferences": {},
  "deployedLinkReferences": {}
}